{
  "_format": "hh-sol-artifact-1",
  "contractName": "Attendance",
  "sourceName": "contracts/attendance.sol",
  "abi": [
    {
      "anonymous": false,
      "inputs": [
        {
          "indexed": false,
          "internalType": "string",
          "name": "fingerprintId",
          "type": "string"
        },
        {
          "indexed": false,
          "internalType": "string",
          "name": "timestamp",
          "type": "string"
        },
        {
          "indexed": false,
          "internalType": "string",
          "name": "status",
          "type": "string"
        }
      ],
      "name": "AttendanceMarked",
      "type": "event"
    },
    {
      "inputs": [
        {
          "internalType": "string",
          "name": "",
          "type": "string"
        }
      ],
      "name": "attendanceRecords",
      "outputs": [
        {
          "internalType": "string",
          "name": "fingerprintId",
          "type": "string"
        },
        {
          "internalType": "string",
          "name": "timestamp",
          "type": "string"
        },
        {
          "internalType": "string",
          "name": "status",
          "type": "string"
        }
      ],
      "stateMutability": "view",
      "type": "function"
    },
    {
      "inputs": [],
      "name": "getAllAttendance",
      "outputs": [
        {
          "components": [
            {
              "internalType": "string",
              "name": "fingerprintId",
              "type": "string"
            },
            {
              "internalType": "string",
              "name": "timestamp",
              "type": "string"
            },
            {
              "internalType": "string",
              "name": "status",
              "type": "string"
            }
          ],
          "internalType": "struct Attendance.Record[]",
          "name": "",
          "type": "tuple[]"
        }
      ],
      "stateMutability": "view",
      "type": "function"
    },
    {
      "inputs": [],
      "name": "getAllRecords",
      "outputs": [
        {
          "internalType": "string[]",
          "name": "",
          "type": "string[]"
        }
      ],
      "stateMutability": "view",
      "type": "function"
    },
    {
      "inputs": [
        {
          "internalType": "string",
          "name": "_fingerprintId",
          "type": "string"
        }
      ],
      "name": "getAttendance",
      "outputs": [
        {
          "internalType": "string",
          "name": "",
          "type": "string"
        },
        {
          "internalType": "string",
          "name": "",
          "type": "string"
        },
        {
          "internalType": "string",
          "name": "",
          "type": "string"
        }
      ],
      "stateMutability": "view",
      "type": "function"
    },
    {
      "inputs": [
        {
          "internalType": "string",
          "name": "_fingerprintId",
          "type": "string"
        },
        {
          "internalType": "string",
          "name": "_timestamp",
          "type": "string"
        },
        {
          "internalType": "string",
          "name": "_status",
          "type": "string"
        }
      ],
      "name": "markAttendance",
      "outputs": [],
      "stateMutability": "nonpayable",
      "type": "function"
    },
    {
      "inputs": [
        {
          "internalType": "uint256",
          "name": "",
          "type": "uint256"
        }
      ],
      "name": "recordIds",
      "outputs": [
        {
          "internalType": "string",
          "name": "",
          "type": "string"
        }
      ],
      "stateMutability": "view",
      "type": "function"
    }
  ],
  "bytecode": "0x608060405234801561001057600080fd5b5061164c806100206000396000f3fe608060405234801561001057600080fd5b50600436106100625760003560e01c80630a6fdeee146100675780635a100a731461008557806364a48527146100b757806397ddbef9146100e9578063a7f9fe7214610119578063e6e9c4ae14610137575b600080fd5b61006f610153565b60405161007c9190610c91565b60405180910390f35b61009f600480360381019061009a9190610dfc565b6103f7565b6040516100ae93929190610e8f565b60405180910390f35b6100d160048036038101906100cc9190610dfc565b6105cf565b6040516100e093929190610e8f565b60405180910390f35b61010360048036038101906100fe9190610f11565b6107d3565b6040516101109190610f3e565b60405180910390f35b61012161087f565b60405161012e9190611022565b60405180910390f35b610151600480360381019061014c9190611044565b610958565b005b6060600060018054905067ffffffffffffffff81111561017657610175610cd1565b5b6040519080825280602002602001820160405280156101af57816020015b61019c610ac0565b8152602001906001900390816101945790505b50905060005b6001805490508110156103ef576000600182815481106101d8576101d76110eb565b5b906000526020600020016040516101ef919061121d565b908152602001604051809103902060405180606001604052908160008201805461021890611149565b80601f016020809104026020016040519081016040528092919081815260200182805461024490611149565b80156102915780601f1061026657610100808354040283529160200191610291565b820191906000526020600020905b81548152906001019060200180831161027457829003601f168201915b505050505081526020016001820180546102aa90611149565b80601f01602080910402602001604051908101604052809291908181526020018280546102d690611149565b80156103235780601f106102f857610100808354040283529160200191610323565b820191906000526020600020905b81548152906001019060200180831161030657829003601f168201915b5050505050815260200160028201805461033c90611149565b80601f016020809104026020016040519081016040528092919081815260200182805461036890611149565b80156103b55780601f1061038a576101008083540402835291602001916103b5565b820191906000526020600020905b81548152906001019060200180831161039857829003601f168201915b5050505050815250508282815181106103d1576103d06110eb565b5b602002602001018190525080806103e790611263565b9150506101b5565b508091505090565b60008180516020810182018051848252602083016020850120818352809550505050505060009150905080600001805461043090611149565b80601f016020809104026020016040519081016040528092919081815260200182805461045c90611149565b80156104a95780601f1061047e576101008083540402835291602001916104a9565b820191906000526020600020905b81548152906001019060200180831161048c57829003601f168201915b5050505050908060010180546104be90611149565b80601f01602080910402602001604051908101604052809291908181526020018280546104ea90611149565b80156105375780601f1061050c57610100808354040283529160200191610537565b820191906000526020600020905b81548152906001019060200180831161051a57829003601f168201915b50505050509080600201805461054c90611149565b80601f016020809104026020016040519081016040528092919081815260200182805461057890611149565b80156105c55780601f1061059a576101008083540402835291602001916105c5565b820191906000526020600020905b8154815290600101906020018083116105a857829003601f168201915b5050505050905083565b6060806060600080856040516105e591906112dc565b908152602001604051809103902060405180606001604052908160008201805461060e90611149565b80601f016020809104026020016040519081016040528092919081815260200182805461063a90611149565b80156106875780601f1061065c57610100808354040283529160200191610687565b820191906000526020600020905b81548152906001019060200180831161066a57829003601f168201915b505050505081526020016001820180546106a090611149565b80601f01602080910402602001604051908101604052809291908181526020018280546106cc90611149565b80156107195780601f106106ee57610100808354040283529160200191610719565b820191906000526020600020905b8154815290600101906020018083116106fc57829003601f168201915b5050505050815260200160028201805461073290611149565b80601f016020809104026020016040519081016040528092919081815260200182805461075e90611149565b80156107ab5780601f10610780576101008083540402835291602001916107ab565b820191906000526020600020905b81548152906001019060200180831161078e57829003601f168201915b5050505050815250509050806000015181602001518260400151935093509350509193909250565b600181815481106107e357600080fd5b9060005260206000200160009150905080546107fe90611149565b80601f016020809104026020016040519081016040528092919081815260200182805461082a90611149565b80156108775780601f1061084c57610100808354040283529160200191610877565b820191906000526020600020905b81548152906001019060200180831161085a57829003601f168201915b505050505081565b60606001805480602002602001604051908101604052809291908181526020016000905b8282101561094f5783829060005260206000200180546108c290611149565b80601f01602080910402602001604051908101604052809291908181526020018280546108ee90611149565b801561093b5780601f106109105761010080835404028352916020019161093b565b820191906000526020600020905b81548152906001019060200180831161091e57829003601f168201915b5050505050815260200190600101906108a3565b50505050905090565b60405180606001604052808481526020018381526020018281525060008460405161098391906112dc565b908152602001604051809103902060008201518160000190816109a6919061148a565b5060208201518160010190816109bc919061148a565b5060408201518160020190816109d2919061148a565b509050506000805b600180549050811015610a4357848051906020012060018281548110610a0357610a026110eb565b5b90600052602060002001604051610a1a91906115ff565b604051809103902003610a305760019150610a43565b8080610a3b90611263565b9150506109da565b5080610a7f57600184908060018154018082558091505060019003906000526020600020016000909190919091509081610a7d919061148a565b505b7f7a2b3e3bd1a70f58da2fb166c29ce1c5b5408eee0ede9a89e396fd96804b878d848484604051610ab293929190610e8f565b60405180910390a150505050565b60405180606001604052806060815260200160608152602001606081525090565b600081519050919050565b600082825260208201905092915050565b6000819050602082019050919050565b600081519050919050565b600082825260208201905092915050565b60005b83811015610b47578082015181840152602081019050610b2c565b60008484015250505050565b6000601f19601f8301169050919050565b6000610b6f82610b0d565b610b798185610b18565b9350610b89818560208601610b29565b610b9281610b53565b840191505092915050565b60006060830160008301518482036000860152610bba8282610b64565b91505060208301518482036020860152610bd48282610b64565b91505060408301518482036040860152610bee8282610b64565b9150508091505092915050565b6000610c078383610b9d565b905092915050565b6000602082019050919050565b6000610c2782610ae1565b610c318185610aec565b935083602082028501610c4385610afd565b8060005b85811015610c7f5784840389528151610c608582610bfb565b9450610c6b83610c0f565b925060208a01995050600181019050610c47565b50829750879550505050505092915050565b60006020820190508181036000830152610cab8184610c1c565b905092915050565b6000604051905090565b600080fd5b600080fd5b600080fd5b600080fd5b7f4e487b7100000000000000000000000000000000000000000000000000000000600052604160045260246000fd5b610d0982610b53565b810181811067ffffffffffffffff82111715610d2857610d27610cd1565b5b80604052505050565b6000610d3b610cb3565b9050610d478282610d00565b919050565b600067ffffffffffffffff821115610d6757610d66610cd1565b5b610d7082610b53565b9050602081019050919050565b82818337600083830152505050565b6000610d9f610d9a84610d4c565b610d31565b905082815260208101848484011115610dbb57610dba610ccc565b5b610dc6848285610d7d565b509392505050565b600082601f830112610de357610de2610cc7565b5b8135610df3848260208601610d8c565b91505092915050565b600060208284031215610e1257610e11610cbd565b5b600082013567ffffffffffffffff811115610e3057610e2f610cc2565b5b610e3c84828501610dce565b91505092915050565b600082825260208201905092915050565b6000610e6182610b0d565b610e6b8185610e45565b9350610e7b818560208601610b29565b610e8481610b53565b840191505092915050565b60006060820190508181036000830152610ea98186610e56565b90508181036020830152610ebd8185610e56565b90508181036040830152610ed18184610e56565b9050949350505050565b6000819050919050565b610eee81610edb565b8114610ef957600080fd5b50565b600081359050610f0b81610ee5565b92915050565b600060208284031215610f2757610f26610cbd565b5b6000610f3584828501610efc565b91505092915050565b60006020820190508181036000830152610f588184610e56565b905092915050565b600081519050919050565b600082825260208201905092915050565b6000819050602082019050919050565b6000610f988383610b64565b905092915050565b6000602082019050919050565b6000610fb882610f60565b610fc28185610f6b565b935083602082028501610fd485610f7c565b8060005b858110156110105784840389528151610ff18582610f8c565b9450610ffc83610fa0565b925060208a01995050600181019050610fd8565b50829750879550505050505092915050565b6000602082019050818103600083015261103c8184610fad565b905092915050565b60008060006060848603121561105d5761105c610cbd565b5b600084013567ffffffffffffffff81111561107b5761107a610cc2565b5b61108786828701610dce565b935050602084013567ffffffffffffffff8111156110a8576110a7610cc2565b5b6110b486828701610dce565b925050604084013567ffffffffffffffff8111156110d5576110d4610cc2565b5b6110e186828701610dce565b9150509250925092565b7f4e487b7100000000000000000000000000000000000000000000000000000000600052603260045260246000fd5b7f4e487b7100000000000000000000000000000000000000000000000000000000600052602260045260246000fd5b6000600282049050600182168061116157607f821691505b6020821081036111745761117361111a565b5b50919050565b600081905092915050565b60008190508160005260206000209050919050565b600081546111a781611149565b6111b1818661117a565b945060018216600081146111cc57600181146111e157611214565b60ff1983168652811515820286019350611214565b6111ea85611185565b60005b8381101561120c578154818901526001820191506020810190506111ed565b838801955050505b50505092915050565b6000611229828461119a565b915081905092915050565b7f4e487b7100000000000000000000000000000000000000000000000000000000600052601160045260246000fd5b600061126e82610edb565b91507fffffffffffffffffffffffffffffffffffffffffffffffffffffffffffffffff82036112a05761129f611234565b5b600182019050919050565b60006112b682610b0d565b6112c0818561117a565b93506112d0818560208601610b29565b80840191505092915050565b60006112e882846112ab565b915081905092915050565b60006020601f8301049050919050565b600082821b905092915050565b6000600883026113407fffffffffffffffffffffffffffffffffffffffffffffffffffffffffffffffff82611303565b61134a8683611303565b95508019841693508086168417925050509392505050565b6000819050919050565b600061138761138261137d84610edb565b611362565b610edb565b9050919050565b6000819050919050565b6113a18361136c565b6113b56113ad8261138e565b848454611310565b825550505050565b600090565b6113ca6113bd565b6113d5818484611398565b505050565b5b818110156113f9576113ee6000826113c2565b6001810190506113db565b5050565b601f82111561143e5761140f81611185565b611418846112f3565b81016020851015611427578190505b61143b611433856112f3565b8301826113da565b50505b505050565b600082821c905092915050565b600061146160001984600802611443565b1980831691505092915050565b600061147a8383611450565b9150826002028217905092915050565b61149382610b0d565b67ffffffffffffffff8111156114ac576114ab610cd1565b5b6114b68254611149565b6114c18282856113fd565b600060209050601f8311600181146114f457600084156114e2578287015190505b6114ec858261146e565b865550611554565b601f19841661150286611185565b60005b8281101561152a57848901518255600182019150602085019450602081019050611505565b868310156115475784890151611543601f891682611450565b8355505b6001600288020188555050505b505050505050565b600081905092915050565b60008190508160005260206000209050919050565b6000815461158981611149565b611593818661155c565b945060018216600081146115ae57600181146115c3576115f6565b60ff19831686528115158202860193506115f6565b6115cc85611567565b60005b838110156115ee578154818901526001820191506020810190506115cf565b838801955050505b50505092915050565b600061160b828461157c565b91508190509291505056fea26469706673582212204c014daa17c0fcca3f2cef69461d82fc14551a0bd550f0cca6338bdcef34843364736f6c63430008120033",
  "linkReferences": {},
  "deployedLinkReferences": {}
}